:100000000C942A000C943F000C943F000C943F0089
:100010000C943F000C943F000C943F000C943F0064
:100020000C943F000C943F000C943F000C943F0054
:100030000C943F000C943F000C943F000C943F0044
:100040000C943F000C943F000C943F000C943F0034
:100050000C943F0011241FBECFE5D8E0DEBFCDBF1A
:1000600010E0A0E6B0E0ECE6FAE202C005900D92E6
:10007000AA3BB107D9F70E9405120C9434150C94D1
:100080000000EF92FF920F931F937B018C0120E001
:1000900030E040E05FE40E94ED0388238CF0C8016B
:1000A000B70120E030E040E05FE40E94B9010E9427
:1000B0004D049B01AC01205030404040504806C0E8
:1000C000C801B7010E944D049B01AC01B901CA01EE
:1000D0001F910F91FF90EF900895A0E0B0E0E3E74B
:1000E000F0E00C94B814DC012B01FA019C919230E1
:1000F00008F439C1EB018881823008F433C19430AF
:1001000069F4843009F02FC111969C91119789816F
:10011000981709F428C1A2E7B0E025C1843009F49A
:1001200021C18230A9F4923009F01DC19A01AD01BC
:1001300088E0EA010990AE01E90109929E0181502F
:10014000C1F7E201898111969C918923818308C1BD
:10015000923009F407C112962D903C901397EB0151
:100160008A819B811496AD90BD90CD90DC901797BD
:10017000EC80FD800E811F819101281B390BB90194
:1001800037FF04C066277727621B730B6032710547
:100190000CF061C0121613066CF537014801062EEB
:1001A00004C096948794779467940A94D2F721E0D8
:1001B00030E040E050E004C0220F331F441F551FC1
:1001C0006A95D2F721503040404050402E213F21C7
:1001D00040235123211531054105510521F021E02E
:1001E00030E040E050E079018A01E628F72808294C
:1001F00019293CC0232BD1F1260E371E35014601AB
:10020000062E04C096948794779467940A94D2F744
:1002100021E030E040E050E004C0220F331F441FD3
:10022000551F6A95D2F721503040404050402A2156
:100230003B214C215D21211531054105510521F05E
:1002400021E030E040E050E059016A01A628B728DB
:10025000C828D9280BC0821593052CF01C01AA24AC
:10026000BB24650103C0EE24FF24870111969C91F5
:10027000D20111968C91981709F445C0992339F051
:10028000A80197012A193B094C095D0906C0A6017E
:1002900095012E193F09400B510B57FD08C01182E3
:1002A0003382228224833583468357831DC081E0B5
:1002B00081833382228288279927DC01821B930B5A
:1002C000A40BB50B84839583A683B7830DC0220F3F
:1002D000331F441F551F24833583468357838281F0
:1002E000938101979383828324813581468157814D
:1002F000DA01C9010197A109B1098F5F9F4FAF4F83
:10030000BF4328F30BC0918333822282EA0CFB1C8B
:100310000C1D1D1DE482F5820683178383E0808314
:10032000248135814681578157FF1AC0C901AA2708
:1003300097FDA095BA2F81709070A070B0705695FF
:10034000479537952795822B932BA42BB52B848328
:100350009583A683B7838281938101969383828359
:10036000DF0101C0D201CD01CDB7DEB7E2E10C94CF
:10037000D414A0E2B0E0EFEBF1E00C94C414698374
:100380007A838B839C832D833E834F835887E9E058
:10039000EE2EF12CEC0EFD1ECE010196B7010E944F
:1003A00076058E010F5E1F4FCE010596B8010E94A3
:1003B00076058A8991E089278A8BC701B801AE0149
:1003C000475E5F4F0E946D000E94A104A096E6E088
:1003D0000C94E014A0E2B0E0E0EFF1E00C94C4145F
:1003E00069837A838B839C832D833E834F835887D5
:1003F000F9E0EF2EF12CEC0EFD1ECE010196B701B7
:100400000E9476058E010F5E1F4FCE010596B80142
:100410000E947605C701B801AE01475E5F4F0E949A
:100420006D000E94A104A096E6E00C94E014A0E206
:10043000B0E0EDE1F2E00C94B81469837A838B8329
:100440009C832D833E834F835887CE010196BE0146
:10045000675F7F4F0E947605CE010596BE016F5EF5
:100460007F4F0E9476059985923088F08989823085
:10047000C8F0943019F4823051F404C0843029F467
:10048000923081F482E790E0C6C0923049F420E0D7
:100490009A858A89981321E02A87CE010996BBC0E4
:1004A000823049F420E09A858A89981321E02A8BCA
:1004B000CE014196B0C02D843E844F8458886D880B
:1004C0007E888F88988CEE24FF248701AA24BB2481
:1004D000650140E050E060E070E0E0E0F0E0C10184
:1004E00081709070892BE9F0E60CF71C081D191D2E
:1004F0009A01AB012A0D3B1D4C1D5D1D80E090E073
:10050000A0E0B0E0E614F7040805190520F481E046
:1005100090E0A0E0B0E0BA01A901480F591F6A1F9E
:100520007B1FAA0CBB1CCC1CDD1C97FE08C081E005
:1005300090E0A0E0B0E0A82AB92ACA2ADB2A3196C6
:10054000E032F10549F0660C771C881C991C569422
:10055000479437942794C3CFFA85EA892B893C893D
:100560008B859C85280F391F2E5F3F4F17C0CA010E
:1005700081709070892B61F016950795F794E79438
:1005800080E090E0A0E0B0E8E82AF92A0A2B1B2BD3
:1005900076956795579547952F5F3F4F77FDE7CF46
:1005A0000CC0440F551F661F771F17FD4160EE0CEE
:1005B000FF1C001F111F21503040403090E05907B0
:1005C00090E0690790E4790760F32B8F3C8FDB01A3
:1005D000CA018F779070A070B07080349105A1052A
:1005E000B10561F447FD0AC0E114F10401051105EC
:1005F00029F0405C5F4F6F4F7F4F40781A8EFE1797
:1006000011F081E08A8F4D8F5E8F6F8F78A383E02A
:10061000898FCE0149960E94A104A096E2E10C9434
:10062000D414A8E1B0E0E7E1F3E00C94C0146983CE
:100630007A838B839C832D833E834F835887B9E0D5
:10064000EB2EF12CEC0EFD1ECE010196B7010E949F
:1006500076058E010F5E1F4FCE010596B8010E94F0
:1006600076052985223008F47EC03989323010F4AD
:10067000B8017CC08A859A8989278A87243011F03D
:10068000223031F4231709F06EC062E770E06EC0CB
:10069000343039F41D861E861F86188A1C861B86F8
:1006A00004C0323021F484E08987B7015FC02B8514
:1006B0003C858B899C89281B390B3C872B87ED84D3
:1006C000FE840F851889AD88BE88CF88D88CEA143F
:1006D000FB040C051D0540F4EE0CFF1C001F111F50
:1006E000215030403C872B8720E030E040E050E054
:1006F00080E090E0A0E0B0E460E070E0EA14FB0489
:100700000C051D0540F0282B392B4A2B5B2BEA18D2
:10071000FB080C091D09B695A79597958795EE0CD2
:10072000FF1C001F111F6F5F7F4F6F31710531F785
:10073000DA01C9018F779070A070B0708034910594
:10074000A105B10561F427FD0AC0E114F10401051A
:10075000110529F0205C3F4F4F4F5F4F20782D87C8
:100760003E874F87588BBE01675F7F4FCB010E944A
:10077000A1046896EAE00C94DC14A8E1B0E0E3EC94
:10078000F3E00C94C41469837A838B839C832D8358
:100790003E834F83588789E0E82EF12CEC0EFD1E36
:1007A000CE010196B7010E9476058E010F5E1F4FA4
:1007B000CE010596B8010E9476058985823040F009
:1007C0008989823028F0C701B8010E94EE0501C076
:1007D0008FEF6896E6E00C94E014A8E1B0E0E3EF58
:1007E000F3E00C94C41469837A838B839C832D83F8
:1007F0003E834F83588789E0E82EF12CEC0EFD1ED6
:10080000CE010196B7010E9476058E010F5E1F4F43
:10081000CE010596B8010E9476058985823040F0A8
:100820008989823028F0C701B8010E94EE0501C015
:100830008FEF6896E6E00C94E014A8E1B0E0E3E204
:10084000F4E00C94C41469837A838B839C832D8396
:100850003E834F83588789E0E82EF12CEC0EFD1E75
:10086000CE010196B7010E9476058E010F5E1F4FE3
:10087000CE010596B8010E9476058985823040F048
:100880008989823028F0C701B8010E94EE0501C0B5
:1008900081E06896E6E00C94E014ACE0B0E0E3E5BB
:1008A000F4E00C94C81469837A838B839C83CE0113
:1008B0000196BE016B5F7F4F0E9476058D8182306D
:1008C00061F1823050F1843021F48E81882351F11E
:1008D0002EC02F81388537FD20C06E812F31310524
:1008E0001CF06623F9F023C08EE190E0821B930B8D
:1008F00029853A854B855C8504C056954795379583
:1009000027958A95D2F76623B1F05095409530959A
:1009100021953F4F4F4F5F4F0EC020E030E040E049
:1009200050E009C02FEF3FEF4FEF5FE704C020E03A
:1009300030E040E050E8B901CA012C96E2E00C94A6
:10094000E414DF92EF92FF920F931F93FC01E48077
:10095000F58006811781D1808081823048F480E063
:1009600090E0A0E1B0E0E82AF92A0A2B1B2BA5C0F1
:10097000843009F49FC0823021F4EE24FF248701E3
:1009800005C0E114F1040105110519F4E0E0F0E0FF
:1009900096C0628173819FEF623879070CF05BC06B
:1009A00022E83FEF261B370B2A3131052CF020E0DF
:1009B00030E040E050E02AC0B801A701022E04C098
:1009C00076956795579547950A94D2F781E090E020
:1009D000A0E0B0E004C0880F991FAA1FBB1F2A9592
:1009E000D2F70197A109B1098E219F21A023B1233C
:1009F0000097A105B10521F081E090E0A0E0B0E012
:100A00009A01AB01282B392B4A2B5B2BDA01C90148
:100A10008F779070A070B07080349105A105B105FA
:100A200039F427FF09C0205C3F4F4F4F5F4F04C090
:100A3000215C3F4F4F4F5F4FE0E0F0E02030A0E0FF
:100A40003A07A0E04A07A0E45A0710F0E1E0F0E01E
:100A500079018A0127C06038710564F5FB01E1580E
:100A6000FF4FD801C7018F779070A070B0708034AD
:100A70009105A105B10539F4E7FE0DC080E490E0D1
:100A8000A0E0B0E004C08FE390E0A0E0B0E0E80EAA
:100A9000F91E0A1F1B1F17FF05C016950795F7942F
:100AA000E794319687E016950795F794E7948A9531
:100AB000D1F705C0EE24FF248701EFEFF0E06E2FA1
:100AC000679566276795902F9F77D794DD24D794F5
:100AD0008E2F8695492F462B582F5D29B701CA01C5
:100AE0001F910F91FF90EF90DF900895FC01DB01C3
:100AF000408151812281622F6F7770E0221F22276F
:100B0000221F9381892F880F822B282F30E0991F75
:100B10009927991F11969C93119721153105A9F5D5
:100B2000411551056105710511F482E037C082E875
:100B30009FEF13969C938E9312979A01AB0167E0F7
:100B4000220F331F441F551F6A95D1F783E08C9302
:100B50000DC0220F331F441F551F12968D919C917B
:100B60001397019713969C938E931297203080E0F1
:100B7000380780E0480780E4580758F314962D930F
:100B80003D934D935C93179708952F3F310579F46A
:100B9000411551056105710519F484E08C930895A0
:100BA00064FF03C081E08C9312C01C9210C02F57C9
:100BB000304013963C932E93129783E08C9387E0FA
:100BC000440F551F661F771F8A95D1F770641496DE
:100BD0004D935D936D937C93179708951F93DC015C
:100BE000FB019C91923008F447C08081823008F468
:100BF00043C0943051F411961C91843099F5818151
:100C0000682F70E0611B71093FC0843021F0923081
:100C100031F48230B9F18181882389F12DC0119698
:100C20001C9111978230F1F081811817D9F4129636
:100C30002D913C911397828193818217930794F0B1
:100C400028173907BCF014968D919D910D90BC9199
:100C5000A02D2481358146815781281739074A07FD
:100C60005B0718F4112341F00AC082179307A40709
:100C7000B50740F4112319F061E070E005C06FEF93
:100C80007FEF02C060E070E0CB011F910895DF9319
:100C9000CF93CDB7DEB7E7E2F0E080E48083E6E211
:100CA000F0E087E88083CF91DF910895DF93CF93C1
:100CB00000D000D00F92CDB7DEB78D8319821A8293
:100CC0001B821C82A7E2B0E0E7E2F0E08081982F6F
:100CD000907E8D818F71892B8C93A6E2B0E0E6E245
:100CE000F0E0808180648C93E6E2F0E08081882FE0
:100CF00090E0807190700097B9F3A6E2B0E0E6E270
:100D0000F0E0808180618C93E4E2F0E08081882FC4
:100D100090E0A0E0B0E089839A83AB83BC83E5E2F6
:100D2000F0E08081882F90E0982F88279C0144274D
:100D300037FD4095542F89819A81AB81BC81822BEC
:100D4000932BA42BB52B89839A83AB83BC83898196
:100D50009A810F900F900F900F900F90CF91DF918D
:100D60000895DF93CF9300D000D000D0CDB7DEB789
:100D70008B836C838B818695869586958A838B8100
:100D8000877089838A81282F30E03E832D838D816F
:100D90009E818130910509F443C02D813E8122302E
:100DA00031052CF48D819E81009771F0BCC02D819E
:100DB0003E812230310509F45FC08D819E818330F0
:100DC000910509F485C0AFC08C818130A1F4ABE3FB
:100DD000B0E0EBE3F0E08081482F8981282F30E0FC
:100DE00081E090E0022E02C0880F991F0A94E2F77A
:100DF000842B8C9398C0ABE3B0E0EBE3F0E0808110
:100E0000482F8981282F30E081E090E0022E02C037
:100E1000880F991F0A94E2F7809584238C9383C0EE
:100E20008C818130A1F4A8E3B0E0E8E3F0E08081B8
:100E3000482F8981282F30E081E090E0022E02C007
:100E4000880F991F0A94E2F7842B8C936CC0A8E357
:100E5000B0E0E8E3F0E08081482F8981282F30E07E
:100E600081E090E0022E02C0880F991F0A94E2F7F9
:100E7000809584238C9357C08C818130A1F4A5E3A5
:100E8000B0E0E5E3F0E08081482F8981282F30E051
:100E900081E090E0022E02C0880F991F0A94E2F7C9
:100EA000842B8C9340C0A5E3B0E0E5E3F0E08081C3
:100EB000482F8981282F30E081E090E0022E02C087
:100EC000880F991F0A94E2F7809584238C932BC096
:100ED0008C818130A1F4A2E3B0E0E2E3F0E0808114
:100EE000482F8981282F30E081E090E0022E02C057
:100EF000880F991F0A94E2F7842B8C9314C0A2E305
:100F0000B0E0E2E3F0E08081482F8981282F30E0D3
:100F100081E090E0022E02C0880F991F0A94E2F748
:100F2000809584238C9326960FB6F894DEBF0FBE6F
:100F3000CDBFCF91DF910895DF93CF9300D000D044
:100F400000D0CDB7DEB78C838C818695869586954B
:100F50008B838C8187708A8319828B81282F30E064
:100F60003E832D834D815E814130510541F18D815C
:100F70009E818230910534F42D813E812115310509
:100F800061F052C04D815E814230510551F18D8139
:100F90009E8183309105B9F147C0E9E3F0E080819B
:100FA000282F30E08A81882F90E0A90102C0559552
:100FB00047958A95E2F7CA018170898335C0E6E3D7
:100FC000F0E08081282F30E08A81882F90E0A9010D
:100FD00002C0559547958A95E2F7CA0181708983C9
:100FE00023C0E3E3F0E08081282F30E08A81882F5E
:100FF00090E0A90102C0559547958A95E2F7CA018C
:101000008170898311C0E0E3F0E08081282F30E017
:101010008A81882F90E0A90102C0559547958A954D
:10102000E2F7CA0181708983898126960FB6F89408
:10103000DEBF0FBECDBFCF91DF910895DF93CF9379
:1010400000D000D0CDB7DEB789836A838981282F8D
:1010500030E03C832B838B819C8181309105D1F0E2
:101060002B813C81223031052CF48B819C810097AF
:1010700061F01EC02B813C812230310581F08B81D3
:101080009C818330910581F013C0EBE3F0E08A810D
:1010900080830EC0E8E3F0E08A81808309C0E5E345
:1010A000F0E08A81808304C0E2E3F0E08A818083FB
:1010B0000F900F900F900F90CF91DF910895DF93D5
:1010C000CF9300D000D0CDB7DEB78A8319828A8152
:1010D000282F30E03C832B838B819C8181309105CC
:1010E000D1F02B813C81223031052CF48B819C8105
:1010F000009761F01EC02B813C812230310581F0C8
:101100008B819C818330910581F013C0EBE3F0E08B
:10111000808189830EC0E8E3F0E08081898309C083
:10112000E5E3F0E08081898304C0E2E3F0E08081C0
:10113000898389810F900F900F900F90CF91DF914D
:101140000895DF93CF9300D000D00F92CDB7DEB7D4
:101150001B821B82FCC08B818695869586958A832F
:101160008B81877089838A81282F30E03D832C838F
:101170008C819D818130910509F44BC02C813D818A
:10118000223031052CF48C819D81009771F0DCC0F8
:101190002C813D812230310509F46FC08C819D8105
:1011A0008330910509F49DC0CFC08B81882F90E0DA
:1011B000880F991FFC01E658FF4F80818130A1F410
:1011C000AAE3B0E0EAE3F0E08081482F8981282F8C
:1011D00030E081E090E0022E02C0880F991F0A944F
:1011E000E2F7842B8C93B0C0AAE3B0E0EAE3F0E02E
:1011F0008081482F8981282F30E081E090E0022E05
:1012000002C0880F991F0A94E2F7809584238C937B
:101210009BC08B81882F90E0880F991FFC01E658B6
:10122000FF4F80818130A1F4A7E3B0E0E7E3F0E075
:101230008081482F8981282F30E081E090E0022EC4
:1012400002C0880F991F0A94E2F7842B8C937CC00C
:10125000A7E3B0E0E7E3F0E08081482F8981282F01
:1012600030E081E090E0022E02C0880F991F0A94BE
:10127000E2F7809584238C9367C08B81882F90E060
:10128000880F991FFC01E658FF4F80818130A1F43F
:10129000A4E3B0E0E4E3F0E08081482F8981282FC7
:1012A00030E081E090E0022E02C0880F991F0A947E
:1012B000E2F7842B8C9348C0A4E3B0E0E4E3F0E0D1
:1012C0008081482F8981282F30E081E090E0022E34
:1012D00002C0880F991F0A94E2F7809584238C93AB
:1012E00033C08B81882F90E0880F991FFC01E6584E
:1012F000FF4F80818130A1F4A1E3B0E0E1E3F0E0B1
:101300008081482F8981282F30E081E090E0022EF3
:1013100002C0880F991F0A94E2F7842B8C9314C0A3
:10132000A1E3B0E0E1E3F0E08081482F8981282F3C
:1013300030E081E090E0022E02C0880F991F0A94ED
:10134000E2F7809584238C938B818F5F8B838B81D5
:10135000803208F400CF0F900F900F900F900F90F5
:10136000CF91DF910895DF93CF93CDB7DEB7A697E6
:101370000FB6F894DEBF0FBECDBF8AE060E00E94DA
:10138000B1068BE061E00E94B10680E090E0A0EA47
:10139000B1E48BA39CA3ADA3BEA36BA17CA18DA143
:1013A0009EA120E030E04AEF54E40E941702DC01E5
:1013B000CB018F8F98A3A9A3BAA36F8D78A189A120
:1013C0009AA120E030E040E85FE30E941D048823FA
:1013D0002CF481E090E09E8F8D8F3FC06F8D78A1BF
:1013E00089A19AA120E03FEF4FE757E40E94BD0397
:1013F00018164CF56BA17CA18DA19EA120E030E0D8
:1014000040E251E40E941702DC01CB01BC01CD0196
:101410000E944100DC01CB019E8F8D8F0FC088ECB4
:1014200090E09C8F8B8F8B8D9C8D0197F1F79C8F1B
:101430008B8F8D8D9E8D01979E8F8D8F8D8D9E8D27
:10144000009769F714C06F8D78A189A19AA10E94B5
:101450004100DC01CB019E8F8D8F8D8D9E8D9A8FEB
:10146000898F898D9A8D0197F1F79A8F898F83E300
:101470000E94100B80E090E0A8ECB2E48D8B9E8B74
:10148000AF8BB88F6D897E898F89988D2BEA3AEA68
:101490004AE250E40E941702DC01CB01898B9A8B4F
:1014A000AB8BBC8B69897A898B899C8920E030E081
:1014B00040E85FE30E941D0488231CF481E0888BD0
:1014C00091C069897A898B899C8920E030E04FE757
:1014D00053E40E94BD0318160CF07BC06D897E8911
:1014E0008F89988D20E030E04AE754E40E94110390
:1014F000DC01CB018C879D87AE87BF876C857D859E
:101500008E859F8520E030E04AEF54E40E94170268
:10151000DC01CB0188879987AA87BB876885798595
:101520008A859B8520E030E040E85FE30E941D044F
:1015300088232CF481E090E09F838E833FC06885F0
:1015400079858A859B8520E03FEF4FE757E40E942D
:10155000BD0318164CF56C857D858E859F8520E032
:1015600030E040E251E40E941702DC01CB01BC01F3
:10157000CD010E944100DC01CB019F838E830FC00F
:1015800088EC90E09D838C838C819D810197F1F79D
:101590009D838C838E819F8101979F838E838E8113
:1015A0009F81009769F724C0688579858A859B8526
:1015B0000E944100DC01CB019F838E838E819F813D
:1015C0009B838A838A819B810197F1F79B838A831E
:1015D0000FC069897A898B899C890E944100DC014E
:1015E000CB01888B8889898389818A95F1F78983E2
:1015F00082E30E94100B88E20E94100B86E00E949A
:10160000100B8CE00E94100B81E00E94100BA6963C
:101610000FB6F894DEBF0FBECDBFCF91DF91089516
:101620000F931F93DF93CF93CDB7DEB7CE54D04047
:101630000FB6F894DEBF0FBECDBFFE01E25BFF4FD9
:101640008083FE01E35BFF4F108289E060E00E942F
:10165000B10681E00E945F08FE01E35BFF4F8083DB
:10166000FE01E35BFF4F8081982F9F70FE01E25BDC
:10167000FF4F8081807F892BFE01E35BFF4F8083DA
:10168000FE01E35BFF4F81E060810E941E088BE05A
:1016900060E00E94B106FE01E75BFF4F80E090E052
:1016A000A8ECB2E480839183A283B3838E010B5BA9
:1016B0001F4FFE01E75BFF4F608171818281938143
:1016C0002BEA3AEA4AE250E40E941702DC01CB011D
:1016D000F80180839183A283B383FE01EB5BFF4F0C
:1016E000608171818281938120E030E040E85FE396
:1016F0000E941D04882334F4FE01EC5BFF4F81E05F
:101700008083A7C0FE01EB5BFF4F60817181828106
:10171000938120E030E04FE753E40E94BD031816A8
:101720000CF087C0FE01E75BFF4F60817181828111
:10173000938120E030E04AE754E40E941103DC0189
:10174000CB01FE01E05CFF4F80839183A283B383D2
:10175000FE01E05CFF4F608171818281938120E016
:1017600030E04AEF54E40E941702DC01CB018CAF59
:101770009DAFAEAFBFAF6CAD7DAD8EAD9FAD20E088
:1017800030E040E85FE30E941D0488232CF481E0F0
:1017900090E09BAF8AAF42C06CAD7DAD8EAD9FAD8A
:1017A00020E03FEF4FE757E40E94BD03181664F5B1
:1017B000FE01E05CFF4F608171818281938120E0B6
:1017C00030E040E251E40E941702DC01CB01BC0191
:1017D000CD010E944100DC01CB019BAF8AAF0FC05D
:1017E00088EC90E099AF88AF88AD99AD0197F1F79B
:1017F00099AF88AF8AAD9BAD01979BAF8AAF8AAD99
:101800009BAD009769F72EC06CAD7DAD8EAD9FADE1
:101810000E944100DC01CB019BAF8AAF8AAD9BAD3A
:101820009FAB8EAB8EA99FA90197F1F79FAB8EABB3
:1018300019C08E010C5B1F4FFE01EB5BFF4F6081F7
:101840007181828193810E944100DC01CB01F8010A
:101850008083FE01EC5BFF4F80818DAB8DA98A9563
:10186000F1F78DAB8BE061E00E94B10680E090E083
:10187000A0EAB0E489AB9AABABABBCAB69A97AA9DF
:101880008BA99CA920E030E04AEF54E40E941702A3
:10189000DC01CB018DA79EA7AFA7B8AB6DA57EA538
:1018A0008FA598A920E030E040E85FE30E941D0486
:1018B00088232CF481E090E09CA78BA73FC06DA506
:1018C0007EA58FA598A920E03FEF4FE757E40E943F
:1018D000BD0318164CF569A97AA98BA99CA920E02B
:1018E00030E040E251E40E941702DC01CB01BC0170
:1018F000CD010E944100DC01CB019CA78BA70FC04A
:1019000088EC90E09AA789A789A59AA50197F1F795
:101910009AA789A78BA59CA501979CA78BA78BA5A8
:101920009CA5009769F714C06DA57EA58FA598A901
:101930000E944100DC01CB019CA78BA78BA59CA535
:1019400098A78FA38FA198A50197F1F798A78FA3C8
:1019500081E00E945F08FE01E35BFF4F8083FE0190
:10196000E35BFF4F8081282F2F70FE01E25BFF4F6A
:101970008081882F90E082959295907F9827807F34
:101980009827822BFE01E35BFF4F8083FE01E35B20
:10199000FF4F81E060810E941E088BE060E00E94A2
:1019A000B10680E090E0A8ECB2E48BA39CA3ADA3C9
:1019B000BEA36BA17CA18DA19EA12BEA3AEA4AE2CB
:1019C00050E40E941702DC01CB018F8F98A3A9A3DA
:1019D000BAA36F8D78A189A19AA120E030E040E8F8
:1019E0005FE30E941D0488231CF481E08E8F91C068
:1019F0006F8D78A189A19AA120E030E04FE753E4F0
:101A00000E94BD0318160CF07BC06BA17CA18DA1B8
:101A10009EA120E030E04AE754E40E941103DC017B
:101A2000CB018A8F9B8FAC8FBD8F6A8D7B8D8C8D08
:101A30009D8D20E030E04AEF54E40E941702DC0163
:101A4000CB018E8B9F8BA88FB98F6E897F89888DF4
:101A5000998D20E030E040E85FE30E941D04882378
:101A60002CF481E090E09D8B8C8B3FC06E897F8948
:101A7000888D998D20E03FEF4FE757E40E94BD032A
:101A800018164CF56A8D7B8D8C8D9D8D20E030E095
:101A900040E251E40E941702DC01CB01BC01CD0100
:101AA0000E944100DC01CB019D8B8C8B0FC088EC28
:101AB00090E09B8B8A8B8A899B890197F1F79B8B9E
:101AC0008A8B8C899D8901979D8B8C8B8C899D89B4
:101AD000009769F724C06E897F89888D998D0E944F
:101AE0004100DC01CB019D8B8C8B8C899D89998B6E
:101AF000888B888999890197F1F7998B888B0FC01A
:101B00006F8D78A189A19AA10E944100DC01CB01CF
:101B10008E8F8E8D8F878F858A95F1F78F878BE0DB
:101B200061E00E94B10680E090E0A0E0B0E48B8725
:101B30009C87AD87BE876B857C858D859E8520E0E3
:101B400030E04AEF54E40E941702DC01CB018F839E
:101B50009887A987BA876F81788589859A8520E0DB
:101B600030E040E85FE30E941D0488232CF481E00C
:101B700090E09E838D833FC06F81788589859A85AB
:101B800020E03FEF4FE757E40E94BD0318164CF5E5
:101B90006B857C858D859E8520E030E040E251E4B8
:101BA0000E941702DC01CB01BC01CD010E94410063
:101BB000DC01CB019E838D830FC088EC90E09C8379
:101BC0008B838B819C810197F1F79C838B838D8123
:101BD0009E8101979E838D838D819E81009769F7F9
:101BE00014C06F81788589859A850E944100DC0147
:101BF000CB019E838D838D819E819A838983898188
:101C00009A810197F1F79A838983C25BDF4F0FB600
:101C1000F894DEBF0FBECDBFCF91DF911F910F9122
:101C200008950F931F93DF93CF93CDB7DEB7CE54B4
:101C3000D0400FB6F894DEBF0FBECDBFFE01E25B11
:101C4000FF4F8083FE01E35BFF4F108289E061E07C
:101C50000E94B10681E00E945F08FE01E35BFF4F36
:101C60008083FE01E35BFF4F8081982F9F70FE0110
:101C7000E25BFF4F8081807F892BFE01E35BFF4F9A
:101C80008083FE01E35BFF4F81E060810E941E08BC
:101C90008BE060E00E94B106FE01E75BFF4F80E051
:101CA00090E0A8ECB2E480839183A283B3838E0199
:101CB0000B5B1F4FFE01E75BFF4F608171818281EB
:101CC00093812BEA3AEA4AE250E40E941702DC01CF
:101CD000CB01F80180839183A283B383FE01EB5B88
:101CE000FF4F608171818281938120E030E040E884
:101CF0005FE30E941D04882334F4FE01EC5BFF4F78
:101D000081E08083A7C0FE01EB5BFF4F60817181A2
:101D10008281938120E030E04FE753E40E94BD03CD
:101D200018160CF087C0FE01E75BFF4F60817181E0
:101D30008281938120E030E04AE754E40E9411035D
:101D4000DC01CB01FE01E05CFF4F80839183A28325
:101D5000B383FE01E05CFF4F6081718182819381DA
:101D600020E030E04AEF54E40E941702DC01CB018E
:101D70008CAF9DAFAEAFBFAF6CAD7DAD8EAD9FAD47
:101D800020E030E040E85FE30E941D0488232CF44B
:101D900081E090E09BAF8AAF42C06CAD7DAD8EAD6F
:101DA0009FAD20E03FEF4FE757E40E94BD031816B8
:101DB00064F5FE01E05CFF4F608171818281938157
:101DC00020E030E040E251E40E941702DC01CB0148
:101DD000BC01CD010E944100DC01CB019BAF8AAF69
:101DE0000FC088EC90E099AF88AF88AD99AD0197AE
:101DF000F1F799AF88AF8AAD9BAD01979BAF8AAFE2
:101E00008AAD9BAD009769F72EC06CAD7DAD8EADF0
:101E10009FAD0E944100DC01CB019BAF8AAF8AAD30
:101E20009BAD9FAB8EAB8EA99FA90197F1F79FAB9E
:101E30008EAB19C08E010C5B1F4FFE01EB5BFF4F99
:101E400060817181828193810E944100DC01CB011C
:101E5000F8018083FE01EC5BFF4F80818DAB8DA983
:101E60008A95F1F78DAB8BE061E00E94B10680E0CE
:101E700090E0A0EAB0E489AB9AABABABBCAB69A98C
:101E80007AA98BA99CA920E030E04AEF54E40E9493
:101E90001702DC01CB018DA79EA7AFA7B8AB6DA53C
:101EA0007EA58FA598A920E030E040E85FE30E947E
:101EB0001D0488232CF481E090E09CA78BA73FC0F1
:101EC0006DA57EA58FA598A920E03FEF4FE757E4C9
:101ED0000E94BD0318164CF569A97AA98BA99CA983
:101EE00020E030E040E251E40E941702DC01CB0127
:101EF000BC01CD010E944100DC01CB019CA78BA756
:101F00000FC088EC90E09AA789A789A59AA50197A8
:101F1000F1F79AA789A78BA59CA501979CA78BA7EA
:101F20008BA59CA5009769F714C06DA57EA58FA50C
:101F300098A90E944100DC01CB019CA78BA78BA52F
:101F40009CA598A78FA38FA198A50197F1F798A7B3
:101F50008FA381E00E945F08FE01E35BFF4F808357
:101F6000FE01E35BFF4F8081282F2F70FE01E25BB3
:101F7000FF4F8081882F90E082959295907F9827DF
:101F8000807F9827822BFE01E35BFF4F8083FE0159
:101F9000E35BFF4F81E060810E941E088BE060E000
:101FA0000E94B10680E090E0A8ECB2E48BA39CA371
:101FB000ADA3BEA36BA17CA18DA19EA12BEA3AEAA1
:101FC0004AE250E40E941702DC01CB018F8F98A3F4
:101FD000A9A3BAA36F8D78A189A19AA120E030E0CE
:101FE00040E85FE30E941D0488231CF481E08E8F8B
:101FF00091C06F8D78A189A19AA120E030E04FE7D0
:1020000053E40E94BD0318160CF07BC06BA17CA1A9
:102010008DA19EA120E030E04AE754E40E94110324
:10202000DC01CB018A8F9B8FAC8FBD8F6A8D7B8D3E
:102030008C8D9D8D20E030E04AEF54E40E94170221
:10204000DC01CB018E8B9F8BA88FB98F6E897F8926
:10205000888D998D20E030E040E85FE30E941D0408
:1020600088232CF481E090E09D8B8C8B3FC06E899F
:102070007F89888D998D20E03FEF4FE757E40E94DC
:10208000BD0318164CF56A8D7B8D8C8D9D8D20E0DF
:1020900030E040E251E40E941702DC01CB01BC01B8
:1020A000CD010E944100DC01CB019D8B8C8B0FC0C8
:1020B00088EC90E09B8B8A8B8A899B890197F1F74A
:1020C0009B8B8A8B8C899D8901979D8B8C8B8C89AE
:1020D0009D89009769F724C06E897F89888D998DC5
:1020E0000E944100DC01CB019D8B8C8B8C899D89EA
:1020F000998B888B888999890197F1F7998B888BBF
:102100000FC06F8D78A189A19AA10E944100DC01C6
:10211000CB018E8F8E8D8F878F858A95F1F78F8774
:102120008BE061E00E94B10680E090E0A0E0B0E4C6
:102130008B879C87AD87BE876B857C858D859E85CB
:1021400020E030E04AEF54E40E941702DC01CB01AA
:102150008F839887A987BA876F81788589859A85C3
:1021600020E030E040E85FE30E941D0488232CF467
:1021700081E090E09E838D833FC06F817885898563
:102180009A8520E03FEF4FE757E40E94BD03181601
:102190004CF56B857C858D859E8520E030E040E2A6
:1021A00051E40E941702DC01CB01BC01CD010E9469
:1021B0004100DC01CB019E838D830FC088EC90E051
:1021C0009C838B838B819C810197F1F79C838B830C
:1021D0008D819E8101979E838D838D819E81009745
:1021E00069F714C06F81788589859A850E944100BE
:1021F000DC01CB019E838D838D819E819A838983AF
:1022000089819A810197F1F79A838983C25BDF4FB5
:102210000FB6F894DEBF0FBECDBFCF91DF911F91F7
:102220000F910895DF93CF9300D00F92CDB7DEB713
:102230009B838A8319820EC08981282F30E08A818E
:102240009B81FC01E20FF31F80810E94110E8981A6
:102250008F5F89838981282F30E08A819B81FC01EF
:10226000E20FF31F8081882339F70F900F900F90B2
:10227000CF91DF910895DF93CF9300D000D0CDB7F9
:10228000DEB789836A838981282F30E03C832B83E2
:102290008B819C818130910531F02B813C812230F2
:1022A000310539F00BC08A818F7080680E94100B55
:1022B00005C08A818F70806C0E94100B0F900F9068
:1022C0000F900F90CF91DF910895DF93CF9300D0BF
:1022D00000D0CDB7DEB78A837C836B8319828A8175
:1022E0008830F8F48A81882F90E00896880F991F2B
:1022F000880F991F880F991F0E94100B19820EC01A
:102300008981282F30E08B819C81FC01E20FF31F33
:1023100080810E94110E89818F5F89838981883035
:1023200078F30F900F900F900F90CF91DF91089559
:10233000DF93CF93CDB7DEB7AAE2B0E0EAE2F0E0F8
:10234000808188618C93A0E4B0E0E0E4F0E08081DB
:1023500086688C93E9E2F0E083E38083A0E4B0E058
:10236000E0E4F0E080818C93CF91DF910895DF93DA
:10237000CF930F92CDB7DEB78983EBE2F0E0808197
:10238000882F90E0807290700097B9F3ECE2F0E053
:10239000898180830F90CF91DF910895DF93CF9350
:1023A000CDB7DEB7EBE2F0E080818823DCF7ECE22A
:1023B000F0E08081CF91DF910895DF93CF9300D03B
:1023C0000F92CDB7DEB79B838A830EC08981282FF9
:1023D00030E08A819B81FC01E20FF31F80810E9423
:1023E000B71189818F5F89838981282F30E08A81A5
:1023F0009B81FC01E20FF31F8081882339F70F9046
:102400000F900F90CF91DF910895DF93CF93CDB7C9
:10241000DEB7CC54D0400FB6F894DEBF0FBECDBFB0
:10242000A1E3B0E0E1E3F0E080818E7F8C93A1E353
:10243000B0E0E1E3F0E0808182608C93A2E3B0E061
:10244000E2E3F0E080818E7F8C93A2E3B0E0E2E3F0
:10245000F0E080818D7F8C930E9498118AE0FE01CC
:102460007196DF01982F1D929A95E9F7188A1F86B9
:102470000E94A1080E94B3090E94470681E00E94C1
:1024800056069A8B898B89899A898C5C90409A8BA5
:10249000898B89899A899E01255E3F4FB9014AE05F
:1024A00050E00E94EF1489899A8999232CF0CE017B
:1024B0004B960E94121104C080E690E00E94121117
:1024C00082E00E9456069C8B8B8B8B899C898C5C4E
:1024D00090409C8B8B8B81E065E00E943B118B8947
:1024E0009C899E01255E3F4FB9014AE050E00E9461
:1024F000EF148B899C8999232CF0CE014B960E9476
:10250000121104C080E690E00E94121183E00E9444
:1025100056069E8B8D8B8D899E898C5C90409E8B00
:102520008D8B81E06AE00E943B118D899E899E011E
:10253000255E3F4FB9014AE050E00E94EF148D89BB
:102540009E8999232CF0CE014B960E94121104C053
:1025500080E690E00E94121184E00E945606988F57
:102560008F8B8F89988D8C5C9040988F8F8B82E0B9
:1025700063E00E943B118F89988D9E01255E3F4F3D
:10258000B9014AE050E00E94EF148F89988D992399
:102590002CF0CE014B960E94121104C080E690E010
:1025A0000E94121185E00E9456069A8F898F898DAC
:1025B0009A8D8C5C90409A8F898F82E068E00E94AF
:1025C0003B11898D9A8D9E01255E3F4FB9014AE0EE
:1025D00050E00E94EF14898D9A8D99232CF0CE0142
:1025E0004B960E94121104C080E690E00E941211E6
:1025F00082E06EE00E943B1189899A899923ACF1AF
:1026000089899A898135910584F58B899C899923DB
:1026100064F18B899C89813591053CF58D899E8972
:1026200099231CF18D899E8981359105F4F48F8958
:10263000988D9923D4F08F89988D81359105ACF4CC
:10264000898D9A8D99238CF0898D9A8D813591058C
:1026500064F480E390E00E94B71180E690E00E946D
:10266000121181E090E0988B8F8789899A89863949
:102670009105B4F18D899E89863991058CF18F89F8
:10268000988D8639910564F1898D9A8D86399105E9
:102690003CF18B899C89992394F08B899C898135A5
:1026A00091056CF481E390E00E94B71182E690E01E
:1026B0000E94121181E090E0988B8F8711C08B8966
:1026C0009C898035910564F082E390E00E94B71107
:1026D00084E690E00E94121181E090E0988B8F8751
:1026E00089899A8986399105D4F18F89988D86399F
:1026F0009105ACF1898D9A8D8639910584F18D898A
:102700009E89992364F18D899E89813591053CF5D7
:102710008B899C89992394F08B899C8981359105BB
:102720006CF483E390E00E94B71186E690E00E948B
:10273000121181E090E0988B8F8711C08B899C8962
:102740008035910564F084E390E00E94B71188E63B
:1027500090E00E94121181E090E0988B8F87898928
:102760009A89863991050CF43EC0898D9A8D8639F7
:102770009105CCF18F89988D9923ACF18F89988D33
:102780008135910584F58D899E89992364F18D8920
:102790009E89813591053CF58B899C89992394F01C
:1027A0008B899C89813591056CF485E390E00E94CA
:1027B000B7118AE690E00E94121181E090E0988BB8
:1027C0008F8711C08B899C898035910564F086E3E1
:1027D00090E00E94B7118CE690E00E94121181E017
:1027E00090E0988B8F8789899A89863991050CF4B6
:1027F00043C0898D9A8D99230CF43EC0898D9A8DA2
:1028000081359105CCF58F89988D9923ACF18F890D
:10281000988D8135910584F58D899E89992364F180
:102820008D899E89813591053CF58B899C899923F9
:1028300094F08B899C89813591056CF487E390E055
:102840000E94B7118EE690E00E94121181E090E0A4
:10285000988B8F8711C08B899C898035910564F096
:1028600088E390E00E94B71180E790E00E94121187
:1028700081E090E0988B8F87188A1F8681E060E066
:102880000E943B1180E090E0A8E4B3E48B879C8732
:10289000AD87BE876B857C858D859E8520E030E089
:1028A0004AEF54E40E941702DC01CB018F83988722
:1028B000A987BA876F81788589859A8520E030E07D
:1028C00040E85FE30E941D0488232CF481E090E03F
:1028D0009E838D833FC06F81788589859A8520E0AE
:1028E0003FEF4FE757E40E94BD0318164CF56B8588
:1028F0007C858D859E8520E030E040E251E40E9499
:102900001702DC01CB01BC01CD010E944100DC01BA
:10291000CB019E838D830FC088EC90E09C838B83DA
:102920008B819C810197F1F79C838B838D819E81A4
:1029300001979E838D838D819E81009769F714C0D6
:102940006F81788589859A850E944100DC01CB01E1
:102950009E838D838D819E819A83898389819A81CB
:102960000197F1F79A83898381E00E94100B86CD4D
:102970002F923F924F925F926F927F928F929F928F
:10298000AF92BF92CF92DF92EF92FF920F931F937D
:10299000CF93DF93CDB7DEB7CA1BDB0B0FB6F8942E
:1029A000DEBF0FBECDBF09942A88398848885F846E
:1029B0006E847D848C849B84AA84B984C884DF80DF
:1029C000EE80FD800C811B81AA81B981CE0FD11DC3
:1029D0000FB6F894DEBF0FBECDBFED010895FB0129
:1029E0009F01E8944230C4F04532B4F44A3029F4EF
:1029F00097FB1EF4909581959F4F642F77270E9437
:102A00002015805D8A330CF0895D8193CB0100979E
:102A1000A1F716F45DE251931082C9010C941015D0
:102A2000DC01FC01672F71917723E1F7329704C035
:102A30007C916D9370836291AE17BF07C8F30895C0
:102A4000AA1BBB1B51E107C0AA1FBB1FA617B707D4
:102A500010F0A61BB70B881F991F5A95A9F78095F0
:0C2A60009095BC01CD010895F894FFCFC3
:102A6C0030003100320033003400350036003700BE
:102A7C003800000000000000000001010000000010
:102A8C000000000000000101010101010101010130
:102A9C00010101010101010101010101000001011C
:102AAC00010101010101010101010101010101010A
:0A2ABC00010100000000010100000C
:00000001FF
